:1000000009C016C0DEC0EEC013C012C011C010C0BF
:100010000FC00EC011241FBECFE9CDBF10E0A0E677
:10002000B0E001C01D92A436B107E1F702D002C1D1
:10003000E7CFF89480E886BD81E086BDA89A8BB7AB
:1000400080628BBF89B7826089BF1FBC85E083BF98
:100050008CE187BB88B3836088BB78948091630010
:10006000806180936300C49AC39848E250E0B8E18D
:1000700064E670E0ECE2F1E0C0E11CE1A2E0D8E06F
:1000800028E532E08091630085FF8DC0A8988091BB
:1000900063008F7D809363008BE49DE10197F1F70E
:1000A00000C0000086B38091630084FF1BC0D09322
:1000B0006300C29AC39AC49A30936100209360008F
:1000C0000DC08091600090916100892B39F480917E
:1000D0006300816080936300C39864C0B199F1CFDD
:1000E000C49860C08091630083FF5CC0509361003E
:1000F00040936000C49AC39818C080916200811137
:1001000005C088B38B2788BBA093620080916000F4
:1001100090916100892B49F4F894C0936300C8BBA7
:1001200017BBB09BFECF78943DC0B09BE6CF8091CB
:10013000630080FF03C0C49AC39834C0C49AC398B4
:10014000B99AC19A98EC9A95F1F7C19887E99AE320
:100150000197F1F700C00000B998C19A709361004F
:10016000609360000EC08091600090916100892BC7
:1001700041F4C49AC39880916300816080936300C6
:1001800011C0B199F0CFC39AF0936100E093600081
:100190008091600090916100892BD1F7C09363003A
:1001A000C8BB17BBA89A8091630080FF6BCF80917A
:1001B0006200811167CF88B38C2788BBA09362004F
:1001C00061CF1F920F920FB60F9211248F938091DF
:1001D00063008062809363008F910F900FBE0F9039
:1001E0001F9018951F920F920FB60F9211248F93A4
:1001F0009F9380916200882329F080916200815052
:10020000809362008091600090916100892B49F099
:1002100080916000909161000197909361008093BC
:10022000600085E182BF9F918F910F900FBE0F906C
:080230001F901895F894FFCF10
:00000001FF
